{
  "_format": "hh-sol-artifact-1",
  "contractName": "DampNFT",
  "sourceName": "contracts/DampNFT.sol",
  "abi": [
    {
      "inputs": [],
      "stateMutability": "nonpayable",
      "type": "constructor"
    },
    {
      "anonymous": false,
      "inputs": [
        {
          "indexed": true,
          "internalType": "address",
          "name": "owner",
          "type": "address"
        },
        {
          "indexed": true,
          "internalType": "address",
          "name": "approved",
          "type": "address"
        },
        {
          "indexed": true,
          "internalType": "uint256",
          "name": "tokenId",
          "type": "uint256"
        }
      ],
      "name": "Approval",
      "type": "event"
    },
    {
      "anonymous": false,
      "inputs": [
        {
          "indexed": true,
          "internalType": "address",
          "name": "owner",
          "type": "address"
        },
        {
          "indexed": true,
          "internalType": "address",
          "name": "operator",
          "type": "address"
        },
        {
          "indexed": false,
          "internalType": "bool",
          "name": "approved",
          "type": "bool"
        }
      ],
      "name": "ApprovalForAll",
      "type": "event"
    },
    {
      "anonymous": false,
      "inputs": [
        {
          "indexed": true,
          "internalType": "address",
          "name": "from",
          "type": "address"
        },
        {
          "indexed": true,
          "internalType": "address",
          "name": "to",
          "type": "address"
        },
        {
          "indexed": true,
          "internalType": "uint256",
          "name": "tokenId",
          "type": "uint256"
        }
      ],
      "name": "Transfer",
      "type": "event"
    },
    {
      "inputs": [
        {
          "internalType": "address",
          "name": "",
          "type": "address"
        },
        {
          "internalType": "uint256",
          "name": "",
          "type": "uint256"
        }
      ],
      "name": "NFTOwner",
      "outputs": [
        {
          "internalType": "uint256",
          "name": "",
          "type": "uint256"
        }
      ],
      "stateMutability": "view",
      "type": "function"
    },
    {
      "inputs": [
        {
          "internalType": "address",
          "name": "to",
          "type": "address"
        },
        {
          "internalType": "uint256",
          "name": "tokenId",
          "type": "uint256"
        }
      ],
      "name": "approve",
      "outputs": [],
      "stateMutability": "nonpayable",
      "type": "function"
    },
    {
      "inputs": [
        {
          "internalType": "address",
          "name": "owner",
          "type": "address"
        }
      ],
      "name": "balanceOf",
      "outputs": [
        {
          "internalType": "uint256",
          "name": "",
          "type": "uint256"
        }
      ],
      "stateMutability": "view",
      "type": "function"
    },
    {
      "inputs": [
        {
          "internalType": "uint256",
          "name": "tokenId",
          "type": "uint256"
        }
      ],
      "name": "getApproved",
      "outputs": [
        {
          "internalType": "address",
          "name": "",
          "type": "address"
        }
      ],
      "stateMutability": "view",
      "type": "function"
    },
    {
      "inputs": [],
      "name": "getBalance",
      "outputs": [
        {
          "internalType": "uint256",
          "name": "balance",
          "type": "uint256"
        }
      ],
      "stateMutability": "view",
      "type": "function"
    },
    {
      "inputs": [
        {
          "internalType": "address",
          "name": "owner",
          "type": "address"
        },
        {
          "internalType": "address",
          "name": "operator",
          "type": "address"
        }
      ],
      "name": "isApprovedForAll",
      "outputs": [
        {
          "internalType": "bool",
          "name": "",
          "type": "bool"
        }
      ],
      "stateMutability": "view",
      "type": "function"
    },
    {
      "inputs": [
        {
          "internalType": "address",
          "name": "recipient",
          "type": "address"
        },
        {
          "internalType": "string",
          "name": "tokenURI",
          "type": "string"
        }
      ],
      "name": "mintNFT",
      "outputs": [
        {
          "internalType": "uint256",
          "name": "",
          "type": "uint256"
        }
      ],
      "stateMutability": "nonpayable",
      "type": "function"
    },
    {
      "inputs": [],
      "name": "name",
      "outputs": [
        {
          "internalType": "string",
          "name": "",
          "type": "string"
        }
      ],
      "stateMutability": "view",
      "type": "function"
    },
    {
      "inputs": [
        {
          "internalType": "uint256",
          "name": "tokenId",
          "type": "uint256"
        }
      ],
      "name": "ownerOf",
      "outputs": [
        {
          "internalType": "address",
          "name": "",
          "type": "address"
        }
      ],
      "stateMutability": "view",
      "type": "function"
    },
    {
      "inputs": [
        {
          "internalType": "address",
          "name": "from",
          "type": "address"
        },
        {
          "internalType": "address",
          "name": "to",
          "type": "address"
        },
        {
          "internalType": "uint256",
          "name": "tokenId",
          "type": "uint256"
        }
      ],
      "name": "safeTransferFrom",
      "outputs": [],
      "stateMutability": "nonpayable",
      "type": "function"
    },
    {
      "inputs": [
        {
          "internalType": "address",
          "name": "from",
          "type": "address"
        },
        {
          "internalType": "address",
          "name": "to",
          "type": "address"
        },
        {
          "internalType": "uint256",
          "name": "tokenId",
          "type": "uint256"
        },
        {
          "internalType": "bytes",
          "name": "_data",
          "type": "bytes"
        }
      ],
      "name": "safeTransferFrom",
      "outputs": [],
      "stateMutability": "nonpayable",
      "type": "function"
    },
    {
      "inputs": [
        {
          "internalType": "address",
          "name": "operator",
          "type": "address"
        },
        {
          "internalType": "bool",
          "name": "approved",
          "type": "bool"
        }
      ],
      "name": "setApprovalForAll",
      "outputs": [],
      "stateMutability": "nonpayable",
      "type": "function"
    },
    {
      "inputs": [
        {
          "internalType": "bytes4",
          "name": "interfaceId",
          "type": "bytes4"
        }
      ],
      "name": "supportsInterface",
      "outputs": [
        {
          "internalType": "bool",
          "name": "",
          "type": "bool"
        }
      ],
      "stateMutability": "view",
      "type": "function"
    },
    {
      "inputs": [],
      "name": "symbol",
      "outputs": [
        {
          "internalType": "string",
          "name": "",
          "type": "string"
        }
      ],
      "stateMutability": "view",
      "type": "function"
    },
    {
      "inputs": [
        {
          "internalType": "uint256",
          "name": "tokenId",
          "type": "uint256"
        }
      ],
      "name": "tokenURI",
      "outputs": [
        {
          "internalType": "string",
          "name": "",
          "type": "string"
        }
      ],
      "stateMutability": "view",
      "type": "function"
    },
    {
      "inputs": [
        {
          "internalType": "address",
          "name": "from",
          "type": "address"
        },
        {
          "internalType": "address",
          "name": "to",
          "type": "address"
        },
        {
          "internalType": "uint256",
          "name": "tokenId",
          "type": "uint256"
        }
      ],
      "name": "transferFrom",
      "outputs": [],
      "stateMutability": "nonpayable",
      "type": "function"
    }
  ],
  "bytecode": "0x60806040523480156200001157600080fd5b506040518060400160405280600781526020017f44616d704e4654000000000000000000000000000000000000000000000000008152506040518060400160405280600281526020017f444e000000000000000000000000000000000000000000000000000000000000815250816000908051906020019062000096929190620000f9565b508060019080519060200190620000af929190620000f9565b50505033600860006101000a81548173ffffffffffffffffffffffffffffffffffffffff021916908373ffffffffffffffffffffffffffffffffffffffff1602179055506200020e565b8280546200010790620001d8565b90600052602060002090601f0160209004810192826200012b576000855562000177565b82601f106200014657805160ff191683800117855562000177565b8280016001018555821562000177579182015b828111156200017657825182559160200191906001019062000159565b5b5090506200018691906200018a565b5090565b5b80821115620001a55760008160009055506001016200018b565b5090565b7f4e487b7100000000000000000000000000000000000000000000000000000000600052602260045260246000fd5b60006002820490506001821680620001f157607f821691505b60208210811415620002085762000207620001a9565b5b50919050565b612cfe806200021e6000396000f3fe608060405234801561001057600080fd5b50600436106101005760003560e01c806370a0823111610097578063c87b56dd11610066578063c87b56dd146102ab578063ccf01bb7146102db578063e985e9c51461030b578063eacabe141461033b57610100565b806370a082311461022557806395d89b4114610255578063a22cb46514610273578063b88d4fde1461028f57610100565b806312065fe0116100d357806312065fe01461019f57806323b872dd146101bd57806342842e0e146101d95780636352211e146101f557610100565b806301ffc9a71461010557806306fdde0314610135578063081812fc14610153578063095ea7b314610183575b600080fd5b61011f600480360381019061011a9190611a60565b61036b565b60405161012c9190611aa8565b60405180910390f35b61013d61044d565b60405161014a9190611b5c565b60405180910390f35b61016d60048036038101906101689190611bb4565b6104df565b60405161017a9190611c22565b60405180910390f35b61019d60048036038101906101989190611c69565b610564565b005b6101a761067c565b6040516101b49190611cb8565b60405180910390f35b6101d760048036038101906101d29190611cd3565b6106bd565b005b6101f360048036038101906101ee9190611cd3565b61071d565b005b61020f600480360381019061020a9190611bb4565b61073d565b60405161021c9190611c22565b60405180910390f35b61023f600480360381019061023a9190611d26565b6107ef565b60405161024c9190611cb8565b60405180910390f35b61025d6108a7565b60405161026a9190611b5c565b60405180910390f35b61028d60048036038101906102889190611d7f565b610939565b005b6102a960048036038101906102a49190611ef4565b61094f565b005b6102c560048036038101906102c09190611bb4565b6109b1565b6040516102d29190611b5c565b60405180910390f35b6102f560048036038101906102f09190611c69565b610b03565b6040516103029190611cb8565b60405180910390f35b61032560048036038101906103209190611f77565b610b34565b6040516103329190611aa8565b60405180910390f35b61035560048036038101906103509190612058565b610bc8565b6040516103629190611cb8565b60405180910390f35b60007f80ac58cd000000000000000000000000000000000000000000000000000000007bffffffffffffffffffffffffffffffffffffffffffffffffffffffff1916827bffffffffffffffffffffffffffffffffffffffffffffffffffffffff1916148061043657507f5b5e139f000000000000000000000000000000000000000000000000000000007bffffffffffffffffffffffffffffffffffffffffffffffffffffffff1916827bffffffffffffffffffffffffffffffffffffffffffffffffffffffff1916145b80610446575061044582610c66565b5b9050919050565b60606000805461045c906120e3565b80601f0160208091040260200160405190810160405280929190818152602001828054610488906120e3565b80156104d55780601f106104aa576101008083540402835291602001916104d5565b820191906000526020600020905b8154815290600101906020018083116104b857829003601f168201915b5050505050905090565b60006104ea82610cd0565b610529576040517f08c379a000000000000000000000000000000000000000000000000000000000815260040161052090612187565b60405180910390fd5b6004600083815260200190815260200160002060009054906101000a900473ffffffffffffffffffffffffffffffffffffffff169050919050565b600061056f8261073d565b90508073ffffffffffffffffffffffffffffffffffffffff168373ffffffffffffffffffffffffffffffffffffffff1614156105e0576040517f08c379a00000000000000000000000000000000000000000000000000000000081526004016105d790612219565b60405180910390fd5b8073ffffffffffffffffffffffffffffffffffffffff166105ff610d3c565b73ffffffffffffffffffffffffffffffffffffffff16148061062e575061062d81610628610d3c565b610b34565b5b61066d576040517f08c379a0000000000000000000000000000000000000000000000000000000008152600401610664906122ab565b60405180910390fd5b6106778383610d44565b505050565b6000600860009054906101000a900473ffffffffffffffffffffffffffffffffffffffff1673ffffffffffffffffffffffffffffffffffffffff1631905090565b6106ce6106c8610d3c565b82610dfd565b61070d576040517f08c379a00000000000000000000000000000000000000000000000000000000081526004016107049061233d565b60405180910390fd5b610718838383610edb565b505050565b6107388383836040518060200160405280600081525061094f565b505050565b6000806002600084815260200190815260200160002060009054906101000a900473ffffffffffffffffffffffffffffffffffffffff169050600073ffffffffffffffffffffffffffffffffffffffff168173ffffffffffffffffffffffffffffffffffffffff1614156107e6576040517f08c379a00000000000000000000000000000000000000000000000000000000081526004016107dd906123cf565b60405180910390fd5b80915050919050565b60008073ffffffffffffffffffffffffffffffffffffffff168273ffffffffffffffffffffffffffffffffffffffff161415610860576040517f08c379a000000000000000000000000000000000000000000000000000000000815260040161085790612461565b60405180910390fd5b600360008373ffffffffffffffffffffffffffffffffffffffff1673ffffffffffffffffffffffffffffffffffffffff168152602001908152602001600020549050919050565b6060600180546108b6906120e3565b80601f01602080910402602001604051908101604052809291908181526020018280546108e2906120e3565b801561092f5780601f106109045761010080835404028352916020019161092f565b820191906000526020600020905b81548152906001019060200180831161091257829003601f168201915b5050505050905090565b61094b610944610d3c565b8383611142565b5050565b61096061095a610d3c565b83610dfd565b61099f576040517f08c379a00000000000000000000000000000000000000000000000000000000081526004016109969061233d565b60405180910390fd5b6109ab848484846112af565b50505050565b60606109bc82610cd0565b6109fb576040517f08c379a00000000000000000000000000000000000000000000000000000000081526004016109f2906124f3565b60405180910390fd5b6000600660008481526020019081526020016000208054610a1b906120e3565b80601f0160208091040260200160405190810160405280929190818152602001828054610a47906120e3565b8015610a945780601f10610a6957610100808354040283529160200191610a94565b820191906000526020600020905b815481529060010190602001808311610a7757829003601f168201915b505050505090506000610aa561130b565b9050600081511415610abb578192505050610afe565b600082511115610af0578082604051602001610ad892919061254f565b60405160208183030381529060405292505050610afe565b610af984611322565b925050505b919050565b60096020528160005260406000208181548110610b1f57600080fd5b90600052602060002001600091509150505481565b6000600560008473ffffffffffffffffffffffffffffffffffffffff1673ffffffffffffffffffffffffffffffffffffffff16815260200190815260200160002060008373ffffffffffffffffffffffffffffffffffffffff1673ffffffffffffffffffffffffffffffffffffffff16815260200190815260200160002060009054906101000a900460ff16905092915050565b6000610bd460076113c9565b6000610be060076113df565b9050610bec84826113ed565b610bf681846115c7565b600960003373ffffffffffffffffffffffffffffffffffffffff1673ffffffffffffffffffffffffffffffffffffffff1681526020019081526020016000208190806001815401808255809150506001900390600052602060002001600090919091909150558091505092915050565b60007f01ffc9a7000000000000000000000000000000000000000000000000000000007bffffffffffffffffffffffffffffffffffffffffffffffffffffffff1916827bffffffffffffffffffffffffffffffffffffffffffffffffffffffff1916149050919050565b60008073ffffffffffffffffffffffffffffffffffffffff166002600084815260200190815260200160002060009054906101000a900473ffffffffffffffffffffffffffffffffffffffff1673ffffffffffffffffffffffffffffffffffffffff1614159050919050565b600033905090565b816004600083815260200190815260200160002060006101000a81548173ffffffffffffffffffffffffffffffffffffffff021916908373ffffffffffffffffffffffffffffffffffffffff160217905550808273ffffffffffffffffffffffffffffffffffffffff16610db78361073d565b73ffffffffffffffffffffffffffffffffffffffff167f8c5be1e5ebec7d5bd14f71427d1e84f3dd0314c0f7b2291e5b200ac8c7c3b92560405160405180910390a45050565b6000610e0882610cd0565b610e47576040517f08c379a0000000000000000000000000000000000000000000000000000000008152600401610e3e906125e5565b60405180910390fd5b6000610e528361073d565b90508073ffffffffffffffffffffffffffffffffffffffff168473ffffffffffffffffffffffffffffffffffffffff161480610e945750610e938185610b34565b5b80610ed257508373ffffffffffffffffffffffffffffffffffffffff16610eba846104df565b73ffffffffffffffffffffffffffffffffffffffff16145b91505092915050565b8273ffffffffffffffffffffffffffffffffffffffff16610efb8261073d565b73ffffffffffffffffffffffffffffffffffffffff1614610f51576040517f08c379a0000000000000000000000000000000000000000000000000000000008152600401610f4890612677565b60405180910390fd5b600073ffffffffffffffffffffffffffffffffffffffff168273ffffffffffffffffffffffffffffffffffffffff161415610fc1576040517f08c379a0000000000000000000000000000000000000000000000000000000008152600401610fb890612709565b60405180910390fd5b610fcc83838361163b565b610fd7600082610d44565b6001600360008573ffffffffffffffffffffffffffffffffffffffff1673ffffffffffffffffffffffffffffffffffffffff16815260200190815260200160002060008282546110279190612758565b925050819055506001600360008473ffffffffffffffffffffffffffffffffffffffff1673ffffffffffffffffffffffffffffffffffffffff168152602001908152602001600020600082825461107e919061278c565b92505081905550816002600083815260200190815260200160002060006101000a81548173ffffffffffffffffffffffffffffffffffffffff021916908373ffffffffffffffffffffffffffffffffffffffff160217905550808273ffffffffffffffffffffffffffffffffffffffff168473ffffffffffffffffffffffffffffffffffffffff167fddf252ad1be2c89b69c2b068fc378daa952ba7f163c4a11628f55a4df523b3ef60405160405180910390a461113d838383611640565b505050565b8173ffffffffffffffffffffffffffffffffffffffff168373ffffffffffffffffffffffffffffffffffffffff1614156111b1576040517f08c379a00000000000000000000000000000000000000000000000000000000081526004016111a89061282e565b60405180910390fd5b80600560008573ffffffffffffffffffffffffffffffffffffffff1673ffffffffffffffffffffffffffffffffffffffff16815260200190815260200160002060008473ffffffffffffffffffffffffffffffffffffffff1673ffffffffffffffffffffffffffffffffffffffff16815260200190815260200160002060006101000a81548160ff0219169083151502179055508173ffffffffffffffffffffffffffffffffffffffff168373ffffffffffffffffffffffffffffffffffffffff167f17307eab39ab6107e8899845ad3d59bd9653f200f220920489ca2b5937696c31836040516112a29190611aa8565b60405180910390a3505050565b6112ba848484610edb565b6112c684848484611645565b611305576040517f08c379a00000000000000000000000000000000000000000000000000000000081526004016112fc906128c0565b60405180910390fd5b50505050565b606060405180602001604052806000815250905090565b606061132d82610cd0565b61136c576040517f08c379a000000000000000000000000000000000000000000000000000000000815260040161136390612952565b60405180910390fd5b600061137661130b565b9050600081511161139657604051806020016040528060008152506113c1565b806113a0846117cd565b6040516020016113b192919061254f565b6040516020818303038152906040525b915050919050565b6001816000016000828254019250508190555050565b600081600001549050919050565b600073ffffffffffffffffffffffffffffffffffffffff168273ffffffffffffffffffffffffffffffffffffffff16141561145d576040517f08c379a0000000000000000000000000000000000000000000000000000000008152600401611454906129be565b60405180910390fd5b61146681610cd0565b156114a6576040517f08c379a000000000000000000000000000000000000000000000000000000000815260040161149d90612a2a565b60405180910390fd5b6114b26000838361163b565b6001600360008473ffffffffffffffffffffffffffffffffffffffff1673ffffffffffffffffffffffffffffffffffffffff1681526020019081526020016000206000828254611502919061278c565b92505081905550816002600083815260200190815260200160002060006101000a81548173ffffffffffffffffffffffffffffffffffffffff021916908373ffffffffffffffffffffffffffffffffffffffff160217905550808273ffffffffffffffffffffffffffffffffffffffff16600073ffffffffffffffffffffffffffffffffffffffff167fddf252ad1be2c89b69c2b068fc378daa952ba7f163c4a11628f55a4df523b3ef60405160405180910390a46115c360008383611640565b5050565b6115d082610cd0565b61160f576040517f08c379a000000000000000000000000000000000000000000000000000000000815260040161160690612abc565b60405180910390fd5b80600660008481526020019081526020016000209080519060200190611636929190611951565b505050565b505050565b505050565b60006116668473ffffffffffffffffffffffffffffffffffffffff1661192e565b156117c0578373ffffffffffffffffffffffffffffffffffffffff1663150b7a0261168f610d3c565b8786866040518563ffffffff1660e01b81526004016116b19493929190612b31565b6020604051808303816000875af19250505080156116ed57506040513d601f19601f820116820180604052508101906116ea9190612b92565b60015b611770573d806000811461171d576040519150601f19603f3d011682016040523d82523d6000602084013e611722565b606091505b50600081511415611768576040517f08c379a000000000000000000000000000000000000000000000000000000000815260040161175f906128c0565b60405180910390fd5b805181602001fd5b63150b7a0260e01b7bffffffffffffffffffffffffffffffffffffffffffffffffffffffff1916817bffffffffffffffffffffffffffffffffffffffffffffffffffffffff1916149150506117c5565b600190505b949350505050565b60606000821415611815576040518060400160405280600181526020017f30000000000000000000000000000000000000000000000000000000000000008152509050611929565b600082905060005b6000821461184757808061183090612bbf565b915050600a826118409190612c37565b915061181d565b60008167ffffffffffffffff81111561186357611862611dc9565b5b6040519080825280601f01601f1916602001820160405280156118955781602001600182028036833780820191505090505b5090505b60008514611922576001826118ae9190612758565b9150600a856118bd9190612c68565b60306118c9919061278c565b60f81b8183815181106118df576118de612c99565b5b60200101907effffffffffffffffffffffffffffffffffffffffffffffffffffffffffffff1916908160001a905350600a8561191b9190612c37565b9450611899565b8093505050505b919050565b6000808273ffffffffffffffffffffffffffffffffffffffff163b119050919050565b82805461195d906120e3565b90600052602060002090601f01602090048101928261197f57600085556119c6565b82601f1061199857805160ff19168380011785556119c6565b828001600101855582156119c6579182015b828111156119c55782518255916020019190600101906119aa565b5b5090506119d391906119d7565b5090565b5b808211156119f05760008160009055506001016119d8565b5090565b6000604051905090565b600080fd5b600080fd5b60007fffffffff0000000000000000000000000000000000000000000000000000000082169050919050565b611a3d81611a08565b8114611a4857600080fd5b50565b600081359050611a5a81611a34565b92915050565b600060208284031215611a7657611a756119fe565b5b6000611a8484828501611a4b565b91505092915050565b60008115159050919050565b611aa281611a8d565b82525050565b6000602082019050611abd6000830184611a99565b92915050565b600081519050919050565b600082825260208201905092915050565b60005b83811015611afd578082015181840152602081019050611ae2565b83811115611b0c576000848401525b50505050565b6000601f19601f8301169050919050565b6000611b2e82611ac3565b611b388185611ace565b9350611b48818560208601611adf565b611b5181611b12565b840191505092915050565b60006020820190508181036000830152611b768184611b23565b905092915050565b6000819050919050565b611b9181611b7e565b8114611b9c57600080fd5b50565b600081359050611bae81611b88565b92915050565b600060208284031215611bca57611bc96119fe565b5b6000611bd884828501611b9f565b91505092915050565b600073ffffffffffffffffffffffffffffffffffffffff82169050919050565b6000611c0c82611be1565b9050919050565b611c1c81611c01565b82525050565b6000602082019050611c376000830184611c13565b92915050565b611c4681611c01565b8114611c5157600080fd5b50565b600081359050611c6381611c3d565b92915050565b60008060408385031215611c8057611c7f6119fe565b5b6000611c8e85828601611c54565b9250506020611c9f85828601611b9f565b9150509250929050565b611cb281611b7e565b82525050565b6000602082019050611ccd6000830184611ca9565b92915050565b600080600060608486031215611cec57611ceb6119fe565b5b6000611cfa86828701611c54565b9350506020611d0b86828701611c54565b9250506040611d1c86828701611b9f565b9150509250925092565b600060208284031215611d3c57611d3b6119fe565b5b6000611d4a84828501611c54565b91505092915050565b611d5c81611a8d565b8114611d6757600080fd5b50565b600081359050611d7981611d53565b92915050565b60008060408385031215611d9657611d956119fe565b5b6000611da485828601611c54565b9250506020611db585828601611d6a565b9150509250929050565b600080fd5b600080fd5b7f4e487b7100000000000000000000000000000000000000000000000000000000600052604160045260246000fd5b611e0182611b12565b810181811067ffffffffffffffff82111715611e2057611e1f611dc9565b5b80604052505050565b6000611e336119f4565b9050611e3f8282611df8565b919050565b600067ffffffffffffffff821115611e5f57611e5e611dc9565b5b611e6882611b12565b9050602081019050919050565b82818337600083830152505050565b6000611e97611e9284611e44565b611e29565b905082815260208101848484011115611eb357611eb2611dc4565b5b611ebe848285611e75565b509392505050565b600082601f830112611edb57611eda611dbf565b5b8135611eeb848260208601611e84565b91505092915050565b60008060008060808587031215611f0e57611f0d6119fe565b5b6000611f1c87828801611c54565b9450506020611f2d87828801611c54565b9350506040611f3e87828801611b9f565b925050606085013567ffffffffffffffff811115611f5f57611f5e611a03565b5b611f6b87828801611ec6565b91505092959194509250565b60008060408385031215611f8e57611f8d6119fe565b5b6000611f9c85828601611c54565b9250506020611fad85828601611c54565b9150509250929050565b600067ffffffffffffffff821115611fd257611fd1611dc9565b5b611fdb82611b12565b9050602081019050919050565b6000611ffb611ff684611fb7565b611e29565b90508281526020810184848401111561201757612016611dc4565b5b612022848285611e75565b509392505050565b600082601f83011261203f5761203e611dbf565b5b813561204f848260208601611fe8565b91505092915050565b6000806040838503121561206f5761206e6119fe565b5b600061207d85828601611c54565b925050602083013567ffffffffffffffff81111561209e5761209d611a03565b5b6120aa8582860161202a565b9150509250929050565b7f4e487b7100000000000000000000000000000000000000000000000000000000600052602260045260246000fd5b600060028204905060018216806120fb57607f821691505b6020821081141561210f5761210e6120b4565b5b50919050565b7f4552433732313a20617070726f76656420717565727920666f72206e6f6e657860008201527f697374656e7420746f6b656e0000000000000000000000000000000000000000602082015250565b6000612171602c83611ace565b915061217c82612115565b604082019050919050565b600060208201905081810360008301526121a081612164565b9050919050565b7f4552433732313a20617070726f76616c20746f2063757272656e74206f776e6560008201527f7200000000000000000000000000000000000000000000000000000000000000602082015250565b6000612203602183611ace565b915061220e826121a7565b604082019050919050565b60006020820190508181036000830152612232816121f6565b9050919050565b7f4552433732313a20617070726f76652063616c6c6572206973206e6f74206f7760008201527f6e6572206e6f7220617070726f76656420666f7220616c6c0000000000000000602082015250565b6000612295603883611ace565b91506122a082612239565b604082019050919050565b600060208201905081810360008301526122c481612288565b9050919050565b7f4552433732313a207472616e736665722063616c6c6572206973206e6f74206f60008201527f776e6572206e6f7220617070726f766564000000000000000000000000000000602082015250565b6000612327603183611ace565b9150612332826122cb565b604082019050919050565b600060208201905081810360008301526123568161231a565b9050919050565b7f4552433732313a206f776e657220717565727920666f72206e6f6e657869737460008201527f656e7420746f6b656e0000000000000000000000000000000000000000000000602082015250565b60006123b9602983611ace565b91506123c48261235d565b604082019050919050565b600060208201905081810360008301526123e8816123ac565b9050919050565b7f4552433732313a2062616c616e636520717565727920666f7220746865207a6560008201527f726f206164647265737300000000000000000000000000000000000000000000602082015250565b600061244b602a83611ace565b9150612456826123ef565b604082019050919050565b6000602082019050818103600083015261247a8161243e565b9050919050565b7f45524337323155524953746f726167653a2055524920717565727920666f722060008201527f6e6f6e6578697374656e7420746f6b656e000000000000000000000000000000602082015250565b60006124dd603183611ace565b91506124e882612481565b604082019050919050565b6000602082019050818103600083015261250c816124d0565b9050919050565b600081905092915050565b600061252982611ac3565b6125338185612513565b9350612543818560208601611adf565b80840191505092915050565b600061255b828561251e565b9150612567828461251e565b91508190509392505050565b7f4552433732313a206f70657261746f7220717565727920666f72206e6f6e657860008201527f697374656e7420746f6b656e0000000000000000000000000000000000000000602082015250565b60006125cf602c83611ace565b91506125da82612573565b604082019050919050565b600060208201905081810360008301526125fe816125c2565b9050919050565b7f4552433732313a207472616e736665722066726f6d20696e636f72726563742060008201527f6f776e6572000000000000000000000000000000000000000000000000000000602082015250565b6000612661602583611ace565b915061266c82612605565b604082019050919050565b6000602082019050818103600083015261269081612654565b9050919050565b7f4552433732313a207472616e7366657220746f20746865207a65726f2061646460008201527f7265737300000000000000000000000000000000000000000000000000000000602082015250565b60006126f3602483611ace565b91506126fe82612697565b604082019050919050565b60006020820190508181036000830152612722816126e6565b9050919050565b7f4e487b7100000000000000000000000000000000000000000000000000000000600052601160045260246000fd5b600061276382611b7e565b915061276e83611b7e565b92508282101561278157612780612729565b5b828203905092915050565b600061279782611b7e565b91506127a283611b7e565b9250827fffffffffffffffffffffffffffffffffffffffffffffffffffffffffffffffff038211156127d7576127d6612729565b5b828201905092915050565b7f4552433732313a20617070726f766520746f2063616c6c657200000000000000600082015250565b6000612818601983611ace565b9150612823826127e2565b602082019050919050565b600060208201905081810360008301526128478161280b565b9050919050565b7f4552433732313a207472616e7366657220746f206e6f6e20455243373231526560008201527f63656976657220696d706c656d656e7465720000000000000000000000000000602082015250565b60006128aa603283611ace565b91506128b58261284e565b604082019050919050565b600060208201905081810360008301526128d98161289d565b9050919050565b7f4552433732314d657461646174613a2055524920717565727920666f72206e6f60008201527f6e6578697374656e7420746f6b656e0000000000000000000000000000000000602082015250565b600061293c602f83611ace565b9150612947826128e0565b604082019050919050565b6000602082019050818103600083015261296b8161292f565b9050919050565b7f4552433732313a206d696e7420746f20746865207a65726f2061646472657373600082015250565b60006129a8602083611ace565b91506129b382612972565b602082019050919050565b600060208201905081810360008301526129d78161299b565b9050919050565b7f4552433732313a20746f6b656e20616c7265616479206d696e74656400000000600082015250565b6000612a14601c83611ace565b9150612a1f826129de565b602082019050919050565b60006020820190508181036000830152612a4381612a07565b9050919050565b7f45524337323155524953746f726167653a2055524920736574206f66206e6f6e60008201527f6578697374656e7420746f6b656e000000000000000000000000000000000000602082015250565b6000612aa6602e83611ace565b9150612ab182612a4a565b604082019050919050565b60006020820190508181036000830152612ad581612a99565b9050919050565b600081519050919050565b600082825260208201905092915050565b6000612b0382612adc565b612b0d8185612ae7565b9350612b1d818560208601611adf565b612b2681611b12565b840191505092915050565b6000608082019050612b466000830187611c13565b612b536020830186611c13565b612b606040830185611ca9565b8181036060830152612b728184612af8565b905095945050505050565b600081519050612b8c81611a34565b92915050565b600060208284031215612ba857612ba76119fe565b5b6000612bb684828501612b7d565b91505092915050565b6000612bca82611b7e565b91507fffffffffffffffffffffffffffffffffffffffffffffffffffffffffffffffff821415612bfd57612bfc612729565b5b600182019050919050565b7f4e487b7100000000000000000000000000000000000000000000000000000000600052601260045260246000fd5b6000612c4282611b7e565b9150612c4d83611b7e565b925082612c5d57612c5c612c08565b5b828204905092915050565b6000612c7382611b7e565b9150612c7e83611b7e565b925082612c8e57612c8d612c08565b5b828206905092915050565b7f4e487b7100000000000000000000000000000000000000000000000000000000600052603260045260246000fdfea2646970667358221220a19a210133d626f8684697895e642d4abe0c17d4795126058e38828527fc809f64736f6c634300080c0033",
  "linkReferences": {},
  "deployedLinkReferences": {}
}