{
  "_format": "hh-sol-artifact-1",
  "contractName": "DAMP",
  "sourceName": "contracts/Marketplace.sol",
  "abi": [
    {
      "inputs": [],
      "stateMutability": "payable",
      "type": "constructor"
    },
    {
      "anonymous": false,
      "inputs": [
        {
          "indexed": false,
          "internalType": "uint256",
          "name": "ad",
          "type": "uint256"
        },
        {
          "indexed": false,
          "internalType": "bytes32",
          "name": "status",
          "type": "bytes32"
        }
      ],
      "name": "TradeStatusChange",
      "type": "event"
    },
    {
      "inputs": [
        {
          "internalType": "uint256",
          "name": "tokenId",
          "type": "uint256"
        }
      ],
      "name": "cancelTrade",
      "outputs": [],
      "stateMutability": "nonpayable",
      "type": "function"
    },
    {
      "inputs": [
        {
          "internalType": "address",
          "name": "nftContractAddress",
          "type": "address"
        },
        {
          "internalType": "uint256",
          "name": "itemId",
          "type": "uint256"
        }
      ],
      "name": "executeNft",
      "outputs": [],
      "stateMutability": "payable",
      "type": "function"
    },
    {
      "inputs": [
        {
          "internalType": "uint256",
          "name": "itemId",
          "type": "uint256"
        }
      ],
      "name": "getListeditem",
      "outputs": [
        {
          "internalType": "uint256",
          "name": "",
          "type": "uint256"
        }
      ],
      "stateMutability": "view",
      "type": "function"
    },
    {
      "inputs": [
        {
          "internalType": "uint256",
          "name": "",
          "type": "uint256"
        }
      ],
      "name": "items",
      "outputs": [
        {
          "internalType": "uint256",
          "name": "itemId",
          "type": "uint256"
        },
        {
          "internalType": "contract IERC721",
          "name": "nftContractAddress",
          "type": "address"
        },
        {
          "internalType": "uint256",
          "name": "tokenId",
          "type": "uint256"
        },
        {
          "internalType": "address payable",
          "name": "seller",
          "type": "address"
        },
        {
          "internalType": "uint256",
          "name": "price",
          "type": "uint256"
        },
        {
          "internalType": "enum DAMP.Status",
          "name": "status",
          "type": "uint8"
        }
      ],
      "stateMutability": "view",
      "type": "function"
    },
    {
      "inputs": [
        {
          "internalType": "address",
          "name": "nftContractAddress",
          "type": "address"
        },
        {
          "internalType": "uint256",
          "name": "tokenId",
          "type": "uint256"
        },
        {
          "internalType": "uint256",
          "name": "_price",
          "type": "uint256"
        }
      ],
      "name": "listNft",
      "outputs": [],
      "stateMutability": "payable",
      "type": "function"
    },
    {
      "inputs": [],
      "name": "owner",
      "outputs": [
        {
          "internalType": "address payable",
          "name": "",
          "type": "address"
        }
      ],
      "stateMutability": "view",
      "type": "function"
    }
  ],
  "bytecode": "0x60a06040526001600081905550600060028190555033600160006101000a81548173ffffffffffffffffffffffffffffffffffffffff021916908373ffffffffffffffffffffffffffffffffffffffff160217905550662386f26fc100006080818152505060805161117e61007c6000396000505061117e6000f3fe6080604052600436106100555760003560e01c806309ec6cc71461005a57806316a588bb14610083578063666020ef146100c05780638da5cb5b146100dc578063bfb231d214610107578063c922b17c14610149575b600080fd5b34801561006657600080fd5b50610081600480360381019061007c9190610a49565b610165565b005b34801561008f57600080fd5b506100aa60048036038101906100a59190610a49565b610490565b6040516100b79190610a85565b60405180910390f35b6100da60048036038101906100d59190610afe565b6104b0565b005b3480156100e857600080fd5b506100f16106e7565b6040516100fe9190610b5f565b60405180910390f35b34801561011357600080fd5b5061012e60048036038101906101299190610a49565b61070d565b60405161014096959493929190610c50565b60405180910390f35b610163600480360381019061015e9190610cb1565b610796565b005b6000600360008381526020019081526020016000206040518060c0016040529081600082015481526020016001820160009054906101000a900473ffffffffffffffffffffffffffffffffffffffff1673ffffffffffffffffffffffffffffffffffffffff1673ffffffffffffffffffffffffffffffffffffffff168152602001600282015481526020016003820160009054906101000a900473ffffffffffffffffffffffffffffffffffffffff1673ffffffffffffffffffffffffffffffffffffffff1673ffffffffffffffffffffffffffffffffffffffff168152602001600482015481526020016005820160009054906101000a900460ff16600281111561027457610273610bd9565b5b600281111561028657610285610bd9565b5b815250509050806060015173ffffffffffffffffffffffffffffffffffffffff163373ffffffffffffffffffffffffffffffffffffffff16146102fe576040517f08c379a00000000000000000000000000000000000000000000000000000000081526004016102f590610d87565b60405180910390fd5b6000600281111561031257610311610bd9565b5b8160a00151600281111561032957610328610bd9565b5b14610369576040517f08c379a000000000000000000000000000000000000000000000000000000000815260040161036090610df3565b60405180910390fd5b6003600083815260200190815260200160002060010160009054906101000a900473ffffffffffffffffffffffffffffffffffffffff1673ffffffffffffffffffffffffffffffffffffffff166323b872dd30836060015184604001516040518463ffffffff1660e01b81526004016103e493929190610e43565b600060405180830381600087803b1580156103fe57600080fd5b505af1158015610412573d6000803e3d6000fd5b5050505060026003600084815260200190815260200160002060050160006101000a81548160ff021916908360028111156104505761044f610bd9565b5b02179055507f4d38ed2c5ea671a5ccddc331f0ebebd94a60aaf6e572543497485d4d148f9edf826040516104849190610ea0565b60405180910390a15050565b600060036000838152602001908152602001600020600201549050919050565b600260005414156104f6576040517f08c379a00000000000000000000000000000000000000000000000000000000081526004016104ed90610f13565b60405180910390fd5b600260008190555060006003600083815260200190815260200160002090508060030160009054906101000a900473ffffffffffffffffffffffffffffffffffffffff1673ffffffffffffffffffffffffffffffffffffffff163373ffffffffffffffffffffffffffffffffffffffff1614156105a8576040517f08c379a000000000000000000000000000000000000000000000000000000000815260040161059f90610f7f565b60405180910390fd5b80600401543410156105b957600080fd5b60016003600084815260200190815260200160002060050160006101000a81548160ff021916908360028111156105f3576105f2610bd9565b5b02179055508273ffffffffffffffffffffffffffffffffffffffff166323b872dd303384600201546040518463ffffffff1660e01b815260040161063993929190610f9f565b600060405180830381600087803b15801561065357600080fd5b505af1158015610667573d6000803e3d6000fd5b505050508060030160009054906101000a900473ffffffffffffffffffffffffffffffffffffffff1673ffffffffffffffffffffffffffffffffffffffff166108fc82600401549081150290604051600060405180830381858888f193505050501580156106d9573d6000803e3d6000fd5b505060016000819055505050565b600160009054906101000a900473ffffffffffffffffffffffffffffffffffffffff1681565b60036020528060005260406000206000915090508060000154908060010160009054906101000a900473ffffffffffffffffffffffffffffffffffffffff16908060020154908060030160009054906101000a900473ffffffffffffffffffffffffffffffffffffffff16908060040154908060050160009054906101000a900460ff16905086565b600081116107d9576040517f08c379a00000000000000000000000000000000000000000000000000000000081526004016107d090611022565b60405180910390fd5b6040518060c0016040528060025481526020018473ffffffffffffffffffffffffffffffffffffffff1681526020018381526020013373ffffffffffffffffffffffffffffffffffffffff1681526020018281526020016000600281111561084457610843610bd9565b5b8152506003600060025481526020019081526020016000206000820151816000015560208201518160010160006101000a81548173ffffffffffffffffffffffffffffffffffffffff021916908373ffffffffffffffffffffffffffffffffffffffff1602179055506040820151816002015560608201518160030160006101000a81548173ffffffffffffffffffffffffffffffffffffffff021916908373ffffffffffffffffffffffffffffffffffffffff1602179055506080820151816004015560a08201518160050160006101000a81548160ff0219169083600281111561093357610932610bd9565b5b02179055509050508273ffffffffffffffffffffffffffffffffffffffff166323b872dd3330856040518463ffffffff1660e01b815260040161097893929190610f9f565b600060405180830381600087803b15801561099257600080fd5b505af11580156109a6573d6000803e3d6000fd5b505050506001600260008282546109bd9190611071565b925050819055507f4d38ed2c5ea671a5ccddc331f0ebebd94a60aaf6e572543497485d4d148f9edf60016002546109f491906110c7565b604051610a019190611121565b60405180910390a1505050565b600080fd5b6000819050919050565b610a2681610a13565b8114610a3157600080fd5b50565b600081359050610a4381610a1d565b92915050565b600060208284031215610a5f57610a5e610a0e565b5b6000610a6d84828501610a34565b91505092915050565b610a7f81610a13565b82525050565b6000602082019050610a9a6000830184610a76565b92915050565b600073ffffffffffffffffffffffffffffffffffffffff82169050919050565b6000610acb82610aa0565b9050919050565b610adb81610ac0565b8114610ae657600080fd5b50565b600081359050610af881610ad2565b92915050565b60008060408385031215610b1557610b14610a0e565b5b6000610b2385828601610ae9565b9250506020610b3485828601610a34565b9150509250929050565b6000610b4982610aa0565b9050919050565b610b5981610b3e565b82525050565b6000602082019050610b746000830184610b50565b92915050565b6000819050919050565b6000610b9f610b9a610b9584610aa0565b610b7a565b610aa0565b9050919050565b6000610bb182610b84565b9050919050565b6000610bc382610ba6565b9050919050565b610bd381610bb8565b82525050565b7f4e487b7100000000000000000000000000000000000000000000000000000000600052602160045260246000fd5b60038110610c1957610c18610bd9565b5b50565b6000819050610c2a82610c08565b919050565b6000610c3a82610c1c565b9050919050565b610c4a81610c2f565b82525050565b600060c082019050610c656000830189610a76565b610c726020830188610bca565b610c7f6040830187610a76565b610c8c6060830186610b50565b610c996080830185610a76565b610ca660a0830184610c41565b979650505050505050565b600080600060608486031215610cca57610cc9610a0e565b5b6000610cd886828701610ae9565b9350506020610ce986828701610a34565b9250506040610cfa86828701610a34565b9150509250925092565b600082825260208201905092915050565b7f54726164652063616e2062652063616e63656c6c6564206f6e6c79206279207060008201527f6f737465722e0000000000000000000000000000000000000000000000000000602082015250565b6000610d71602683610d04565b9150610d7c82610d15565b604082019050919050565b60006020820190508181036000830152610da081610d64565b9050919050565b7f5472616465206973206e6f74204f70656e2e0000000000000000000000000000600082015250565b6000610ddd601283610d04565b9150610de882610da7565b602082019050919050565b60006020820190508181036000830152610e0c81610dd0565b9050919050565b610e1c81610ac0565b82525050565b6000610e2d82610ba6565b9050919050565b610e3d81610e22565b82525050565b6000606082019050610e586000830186610e13565b610e656020830185610e34565b610e726040830184610a76565b949350505050565b7f43616e63656c6c65640000000000000000000000000000000000000000000000815250565b6000604082019050610eb56000830184610a76565b610ec160208301610e7a565b92915050565b7f5265656e7472616e637947756172643a207265656e7472616e742063616c6c00600082015250565b6000610efd601f83610d04565b9150610f0882610ec7565b602082019050919050565b60006020820190508181036000830152610f2c81610ef0565b9050919050565b7f53656c6c65722063616e6e6f7420627579207468656972204e46540000000000600082015250565b6000610f69601b83610d04565b9150610f7482610f33565b602082019050919050565b60006020820190508181036000830152610f9881610f5c565b9050919050565b6000606082019050610fb46000830186610e13565b610fc16020830185610e13565b610fce6040830184610a76565b949350505050565b7f5072696365206d7573742067726561746572207468616e203000000000000000600082015250565b600061100c601983610d04565b915061101782610fd6565b602082019050919050565b6000602082019050818103600083015261103b81610fff565b9050919050565b7f4e487b7100000000000000000000000000000000000000000000000000000000600052601160045260246000fd5b600061107c82610a13565b915061108783610a13565b9250827fffffffffffffffffffffffffffffffffffffffffffffffffffffffffffffffff038211156110bc576110bb611042565b5b828201905092915050565b60006110d282610a13565b91506110dd83610a13565b9250828210156110f0576110ef611042565b5b828203905092915050565b7f4f70656e00000000000000000000000000000000000000000000000000000000815250565b60006040820190506111366000830184610a76565b611142602083016110fb565b9291505056fea2646970667358221220616cbddf4cfbd218d37c0317d751ead293baa2d0b8dda2456f64a3d57995395f64736f6c634300080c0033",
  "linkReferences": {},
  "deployedLinkReferences": {}
}